{
  "contractName": "StarNotary",
  "abi": [
    {
      "constant": true,
      "inputs": [
        {
          "name": "interfaceId",
          "type": "bytes4"
        }
      ],
      "name": "supportsInterface",
      "outputs": [
        {
          "name": "",
          "type": "bool"
        }
      ],
      "payable": false,
      "stateMutability": "view",
      "type": "function",
      "signature": "0x01ffc9a7"
    },
    {
      "constant": false,
      "inputs": [
        {
          "name": "from",
          "type": "address"
        },
        {
          "name": "to",
          "type": "address"
        },
        {
          "name": "tokenId",
          "type": "uint256"
        }
      ],
      "name": "transferFrom",
      "outputs": [],
      "payable": false,
      "stateMutability": "nonpayable",
      "type": "function",
      "signature": "0x23b872dd"
    },
    {
      "constant": true,
      "inputs": [
        {
          "name": "owner",
          "type": "address"
        }
      ],
      "name": "balanceOf",
      "outputs": [
        {
          "name": "",
          "type": "uint256"
        }
      ],
      "payable": false,
      "stateMutability": "view",
      "type": "function",
      "signature": "0x70a08231"
    },
    {
      "constant": false,
      "inputs": [
        {
          "name": "to",
          "type": "address"
        },
        {
          "name": "approved",
          "type": "bool"
        }
      ],
      "name": "setApprovalForAll",
      "outputs": [],
      "payable": false,
      "stateMutability": "nonpayable",
      "type": "function",
      "signature": "0xa22cb465"
    },
    {
      "anonymous": false,
      "inputs": [
        {
          "indexed": true,
          "name": "from",
          "type": "address"
        },
        {
          "indexed": true,
          "name": "to",
          "type": "address"
        },
        {
          "indexed": true,
          "name": "tokenId",
          "type": "uint256"
        }
      ],
      "name": "Transfer",
      "type": "event",
      "signature": "0xddf252ad1be2c89b69c2b068fc378daa952ba7f163c4a11628f55a4df523b3ef"
    },
    {
      "anonymous": false,
      "inputs": [
        {
          "indexed": true,
          "name": "owner",
          "type": "address"
        },
        {
          "indexed": true,
          "name": "approved",
          "type": "address"
        },
        {
          "indexed": true,
          "name": "tokenId",
          "type": "uint256"
        }
      ],
      "name": "Approval",
      "type": "event",
      "signature": "0x8c5be1e5ebec7d5bd14f71427d1e84f3dd0314c0f7b2291e5b200ac8c7c3b925"
    },
    {
      "anonymous": false,
      "inputs": [
        {
          "indexed": true,
          "name": "owner",
          "type": "address"
        },
        {
          "indexed": true,
          "name": "operator",
          "type": "address"
        },
        {
          "indexed": false,
          "name": "approved",
          "type": "bool"
        }
      ],
      "name": "ApprovalForAll",
      "type": "event",
      "signature": "0x17307eab39ab6107e8899845ad3d59bd9653f200f220920489ca2b5937696c31"
    },
    {
      "constant": false,
      "inputs": [
        {
          "name": "_name",
          "type": "string"
        },
        {
          "name": "_story",
          "type": "string"
        },
        {
          "name": "_cent",
          "type": "string"
        },
        {
          "name": "_dec",
          "type": "string"
        },
        {
          "name": "_mag",
          "type": "string"
        },
        {
          "name": "_tokenId",
          "type": "uint256"
        }
      ],
      "name": "createStar",
      "outputs": [],
      "payable": false,
      "stateMutability": "nonpayable",
      "type": "function",
      "signature": "0xb250ced0"
    },
    {
      "constant": true,
      "inputs": [
        {
          "name": "_cent",
          "type": "string"
        },
        {
          "name": "_dec",
          "type": "string"
        },
        {
          "name": "_mag",
          "type": "string"
        }
      ],
      "name": "checkIfStarExist",
      "outputs": [
        {
          "name": "",
          "type": "bool"
        }
      ],
      "payable": false,
      "stateMutability": "view",
      "type": "function",
      "signature": "0x0384153d"
    },
    {
      "constant": false,
      "inputs": [
        {
          "name": "_tokenId",
          "type": "uint256"
        },
        {
          "name": "_price",
          "type": "uint256"
        }
      ],
      "name": "putStarUpForSale",
      "outputs": [],
      "payable": false,
      "stateMutability": "nonpayable",
      "type": "function",
      "signature": "0x316a4361"
    },
    {
      "constant": false,
      "inputs": [
        {
          "name": "_tokenId",
          "type": "uint256"
        }
      ],
      "name": "buyStar",
      "outputs": [],
      "payable": true,
      "stateMutability": "payable",
      "type": "function",
      "signature": "0x2f1c34ef"
    },
    {
      "constant": false,
      "inputs": [
        {
          "name": "_tokenId",
          "type": "uint256"
        }
      ],
      "name": "mint",
      "outputs": [],
      "payable": false,
      "stateMutability": "nonpayable",
      "type": "function",
      "signature": "0xa0712d68"
    },
    {
      "constant": true,
      "inputs": [
        {
          "name": "_tokenId",
          "type": "uint256"
        }
      ],
      "name": "ownerOf",
      "outputs": [
        {
          "name": "",
          "type": "address"
        }
      ],
      "payable": false,
      "stateMutability": "view",
      "type": "function",
      "signature": "0x6352211e"
    },
    {
      "constant": false,
      "inputs": [
        {
          "name": "_to",
          "type": "address"
        },
        {
          "name": "_tokenId",
          "type": "uint256"
        }
      ],
      "name": "approve",
      "outputs": [],
      "payable": false,
      "stateMutability": "nonpayable",
      "type": "function",
      "signature": "0x095ea7b3"
    },
    {
      "constant": true,
      "inputs": [
        {
          "name": "_tokenId",
          "type": "uint256"
        }
      ],
      "name": "getApproved",
      "outputs": [
        {
          "name": "",
          "type": "address"
        }
      ],
      "payable": false,
      "stateMutability": "view",
      "type": "function",
      "signature": "0x081812fc"
    },
    {
      "constant": false,
      "inputs": [
        {
          "name": "from",
          "type": "address"
        },
        {
          "name": "_to",
          "type": "address"
        },
        {
          "name": "_tokenId",
          "type": "uint256"
        }
      ],
      "name": "safeTransferFrom",
      "outputs": [],
      "payable": false,
      "stateMutability": "nonpayable",
      "type": "function",
      "signature": "0x42842e0e"
    },
    {
      "constant": false,
      "inputs": [
        {
          "name": "from",
          "type": "address"
        },
        {
          "name": "to",
          "type": "address"
        },
        {
          "name": "tokenId",
          "type": "uint256"
        },
        {
          "name": "_data",
          "type": "bytes"
        }
      ],
      "name": "safeTransferFrom",
      "outputs": [],
      "payable": false,
      "stateMutability": "nonpayable",
      "type": "function",
      "signature": "0xb88d4fde"
    },
    {
      "constant": false,
      "inputs": [
        {
          "name": "to",
          "type": "address"
        },
        {
          "name": "approved",
          "type": "bool"
        }
      ],
      "name": "SetApprovalForAll",
      "outputs": [],
      "payable": false,
      "stateMutability": "nonpayable",
      "type": "function",
      "signature": "0x11fb3e60"
    },
    {
      "constant": true,
      "inputs": [
        {
          "name": "owner",
          "type": "address"
        },
        {
          "name": "operator",
          "type": "address"
        }
      ],
      "name": "isApprovedForAll",
      "outputs": [
        {
          "name": "",
          "type": "bool"
        }
      ],
      "payable": false,
      "stateMutability": "view",
      "type": "function",
      "signature": "0xe985e9c5"
    },
    {
      "constant": true,
      "inputs": [
        {
          "name": "_token",
          "type": "uint256"
        }
      ],
      "name": "starsForSale",
      "outputs": [
        {
          "name": "",
          "type": "uint256"
        }
      ],
      "payable": false,
      "stateMutability": "view",
      "type": "function",
      "signature": "0x0564b130"
    },
    {
      "constant": true,
      "inputs": [
        {
          "name": "_token",
          "type": "uint256"
        }
      ],
      "name": "tokenIdToStarInfo",
      "outputs": [
        {
          "name": "",
          "type": "string"
        },
        {
          "name": "",
          "type": "string"
        },
        {
          "name": "",
          "type": "string"
        },
        {
          "name": "",
          "type": "string"
        },
        {
          "name": "",
          "type": "string"
        }
      ],
      "payable": false,
      "stateMutability": "view",
      "type": "function",
      "signature": "0x1967fd98"
    }
  ],
  "bytecode": "0x6080604052620000416301ffc9a77c01000000000000000000000000000000000000000000000000000000000262000084640100000000026401000000009004565b6200007e6380ac58cd7c01000000000000000000000000000000000000000000000000000000000262000084640100000000026401000000009004565b62000142565b63ffffffff7c010000000000000000000000000000000000000000000000000000000002817bffffffffffffffffffffffffffffffffffffffffffffffffffffffff191614151515620000d657600080fd5b6001600080837bffffffffffffffffffffffffffffffffffffffffffffffffffffffff19167bffffffffffffffffffffffffffffffffffffffffffffffffffffffff1916815260200190815260200160002060006101000a81548160ff02191690831515021790555050565b61269880620001526000396000f3006080604052600436106100fc576000357c0100000000000000000000000000000000000000000000000000000000900463ffffffff16806301ffc9a7146101015780630384153d146101655780630564b13014610272578063081812fc146102b3578063095ea7b31461032057806311fb3e601461036d5780631967fd98146103bc57806323b872dd146106125780632f1c34ef1461067f578063316a43611461069f57806342842e0e146106d65780636352211e1461074357806370a08231146107b0578063a0712d6814610807578063a22cb46514610834578063b250ced014610883578063b88d4fde14610a0e578063e985e9c514610ac1575b600080fd5b34801561010d57600080fd5b5061014b60048036038101908080357bffffffffffffffffffffffffffffffffffffffffffffffffffffffff19169060200190929190505050610b3c565b604051808215151515815260200191505060405180910390f35b34801561017157600080fd5b50610258600480360381019080803590602001908201803590602001908080601f0160208091040260200160405190810160405280939291908181526020018383808284378201915050505050509192919290803590602001908201803590602001908080601f0160208091040260200160405190810160405280939291908181526020018383808284378201915050505050509192919290803590602001908201803590602001908080601f0160208091040260200160405190810160405280939291908181526020018383808284378201915050505050509192919290505050610ba3565b604051808215151515815260200191505060405180910390f35b34801561027e57600080fd5b5061029d60048036038101908080359060200190929190505050610bde565b6040518082815260200191505060405180910390f35b3480156102bf57600080fd5b506102de60048036038101908080359060200190929190505050610bfb565b604051808273ffffffffffffffffffffffffffffffffffffffff1673ffffffffffffffffffffffffffffffffffffffff16815260200191505060405180910390f35b34801561032c57600080fd5b5061036b600480360381019080803573ffffffffffffffffffffffffffffffffffffffff16906020019092919080359060200190929190505050610c0d565b005b34801561037957600080fd5b506103ba600480360381019080803573ffffffffffffffffffffffffffffffffffffffff169060200190929190803515159060200190929190505050610c1b565b005b3480156103c857600080fd5b506103e760048036038101908080359060200190929190505050610c29565b60405180806020018060200180602001806020018060200186810386528b818151815260200191508051906020019080838360005b8381101561043757808201518184015260208101905061041c565b50505050905090810190601f1680156104645780820380516001836020036101000a031916815260200191505b5086810385528a818151815260200191508051906020019080838360005b8381101561049d578082015181840152602081019050610482565b50505050905090810190601f1680156104ca5780820380516001836020036101000a031916815260200191505b50868103845289818151815260200191508051906020019080838360005b838110156105035780820151818401526020810190506104e8565b50505050905090810190601f1680156105305780820380516001836020036101000a031916815260200191505b50868103835288818151815260200191508051906020019080838360005b8381101561056957808201518184015260208101905061054e565b50505050905090810190601f1680156105965780820380516001836020036101000a031916815260200191505b50868103825287818151815260200191508051906020019080838360005b838110156105cf5780820151818401526020810190506105b4565b50505050905090810190601f1680156105fc5780820380516001836020036101000a031916815260200191505b509a505050505050505050505060405180910390f35b34801561061e57600080fd5b5061067d600480360381019080803573ffffffffffffffffffffffffffffffffffffffff169060200190929190803573ffffffffffffffffffffffffffffffffffffffff16906020019092919080359060200190929190505050610fc0565b005b61069d6004803603810190808035906020019092919050505061108f565b005b3480156106ab57600080fd5b506106d46004803603810190808035906020019092919080359060200190929190505050611250565b005b3480156106e257600080fd5b50610741600480360381019080803573ffffffffffffffffffffffffffffffffffffffff169060200190929190803573ffffffffffffffffffffffffffffffffffffffff1690602001909291908035906020019092919050505061134f565b005b34801561074f57600080fd5b5061076e6004803603810190808035906020019092919050505061135f565b604051808273ffffffffffffffffffffffffffffffffffffffff1673ffffffffffffffffffffffffffffffffffffffff16815260200191505060405180910390f35b3480156107bc57600080fd5b506107f1600480360381019080803573ffffffffffffffffffffffffffffffffffffffff169060200190929190505050611371565b6040518082815260200191505060405180910390f35b34801561081357600080fd5b50610832600480360381019080803590602001909291905050506113f5565b005b34801561084057600080fd5b50610881600480360381019080803573ffffffffffffffffffffffffffffffffffffffff169060200190929190803515159060200190929190505050611402565b005b34801561088f57600080fd5b50610a0c600480360381019080803590602001908201803590602001908080601f0160208091040260200160405190810160405280939291908181526020018383808284378201915050505050509192919290803590602001908201803590602001908080601f0160208091040260200160405190810160405280939291908181526020018383808284378201915050505050509192919290803590602001908201803590602001908080601f0160208091040260200160405190810160405280939291908181526020018383808284378201915050505050509192919290803590602001908201803590602001908080601f0160208091040260200160405190810160405280939291908181526020018383808284378201915050505050509192919290803590602001908201803590602001908080601f01602080910402602001604051908101604052809392919081815260200183838082843782019150505050505091929192908035906020019092919050505061153e565b005b348015610a1a57600080fd5b50610abf600480360381019080803573ffffffffffffffffffffffffffffffffffffffff169060200190929190803573ffffffffffffffffffffffffffffffffffffffff16906020019092919080359060200190929190803590602001908201803590602001908080601f01602080910402602001604051908101604052809392919081815260200183838082843782019150505050505091929192905050506117bd565b005b348015610acd57600080fd5b50610b22600480360381019080803573ffffffffffffffffffffffffffffffffffffffff169060200190929190803573ffffffffffffffffffffffffffffffffffffffff1690602001909291905050506117e5565b604051808215151515815260200191505060405180910390f35b6000806000837bffffffffffffffffffffffffffffffffffffffffffffffffffffffff19167bffffffffffffffffffffffffffffffffffffffffffffffffffffffff1916815260200190815260200160002060009054906101000a900460ff169050919050565b600080610bb18585856117f9565b90506007600082815260200190815260200160002060009054906101000a900460ff169150509392505050565b600060066000838152602001908152602001600020549050919050565b6000610c0682611a52565b9050919050565b610c178282611aa3565b5050565b610c258282611402565b5050565b6060806060806060610c39612597565b6005600088815260200190815260200160002060a06040519081016040529081600082018054600181600116156101000203166002900480601f016020809104026020016040519081016040528092919081815260200182805460018160011615610100020316600290048015610cf15780601f10610cc657610100808354040283529160200191610cf1565b820191906000526020600020905b815481529060010190602001808311610cd457829003601f168201915b50505050508152602001600182018054600181600116156101000203166002900480601f016020809104026020016040519081016040528092919081815260200182805460018160011615610100020316600290048015610d935780601f10610d6857610100808354040283529160200191610d93565b820191906000526020600020905b815481529060010190602001808311610d7657829003601f168201915b50505050508152602001600282018054600181600116156101000203166002900480601f016020809104026020016040519081016040528092919081815260200182805460018160011615610100020316600290048015610e355780601f10610e0a57610100808354040283529160200191610e35565b820191906000526020600020905b815481529060010190602001808311610e1857829003601f168201915b50505050508152602001600382018054600181600116156101000203166002900480601f016020809104026020016040519081016040528092919081815260200182805460018160011615610100020316600290048015610ed75780601f10610eac57610100808354040283529160200191610ed7565b820191906000526020600020905b815481529060010190602001808311610eba57829003601f168201915b50505050508152602001600482018054600181600116156101000203166002900480601f016020809104026020016040519081016040528092919081815260200182805460018160011615610100020316600290048015610f795780601f10610f4e57610100808354040283529160200191610f79565b820191906000526020600020905b815481529060010190602001808311610f5c57829003601f168201915b505050505081525050905080600001518160200151826040015183606001518460800151849450839350829250819150809050955095509550955095505091939590929450565b610fca3382611be8565b1515610fd557600080fd5b600073ffffffffffffffffffffffffffffffffffffffff168273ffffffffffffffffffffffffffffffffffffffff161415151561101157600080fd5b61101b8382611c7d565b6110258382611d80565b61102f8282611eaf565b808273ffffffffffffffffffffffffffffffffffffffff168473ffffffffffffffffffffffffffffffffffffffff167fddf252ad1be2c89b69c2b068fc378daa952ba7f163c4a11628f55a4df523b3ef60405160405180910390a4505050565b600080600060066000858152602001908152602001600020541115156110b457600080fd5b600660008481526020019081526020016000205491503073ffffffffffffffffffffffffffffffffffffffff16636352211e846040518263ffffffff167c010000000000000000000000000000000000000000000000000000000002815260040180828152602001915050602060405180830381600087803b15801561113957600080fd5b505af115801561114d573d6000803e3d6000fd5b505050506040513d602081101561116357600080fd5b8101908080519060200190929190505050905081341015151561118557600080fd5b61118f8184611d80565b6111993384611eaf565b8073ffffffffffffffffffffffffffffffffffffffff166108fc839081150290604051600060405180830381858888f193505050501580156111df573d6000803e3d6000fd5b5081341115611232573373ffffffffffffffffffffffffffffffffffffffff166108fc8334039081150290604051600060405180830381858888f19350505050158015611230573d6000803e3d6000fd5b505b60006006600085815260200190815260200160002081905550505050565b3373ffffffffffffffffffffffffffffffffffffffff163073ffffffffffffffffffffffffffffffffffffffff16636352211e846040518263ffffffff167c010000000000000000000000000000000000000000000000000000000002815260040180828152602001915050602060405180830381600087803b1580156112d657600080fd5b505af11580156112ea573d6000803e3d6000fd5b505050506040513d602081101561130057600080fd5b810190808051906020019092919050505073ffffffffffffffffffffffffffffffffffffffff1614151561133357600080fd5b8060066000848152602001908152602001600020819055505050565b61135a838383612009565b505050565b600061136a8261202a565b9050919050565b60008073ffffffffffffffffffffffffffffffffffffffff168273ffffffffffffffffffffffffffffffffffffffff16141515156113ae57600080fd5b600360008373ffffffffffffffffffffffffffffffffffffffff1673ffffffffffffffffffffffffffffffffffffffff168152602001908152602001600020549050919050565b6113ff33826120a8565b50565b3373ffffffffffffffffffffffffffffffffffffffff168273ffffffffffffffffffffffffffffffffffffffff161415151561143d57600080fd5b80600460003373ffffffffffffffffffffffffffffffffffffffff1673ffffffffffffffffffffffffffffffffffffffff16815260200190815260200160002060008473ffffffffffffffffffffffffffffffffffffffff1673ffffffffffffffffffffffffffffffffffffffff16815260200190815260200160002060006101000a81548160ff0219169083151502179055508173ffffffffffffffffffffffffffffffffffffffff163373ffffffffffffffffffffffffffffffffffffffff167f17307eab39ab6107e8899845ad3d59bd9653f200f220920489ca2b5937696c3183604051808215151515815260200191505060405180910390a35050565b6000611548612597565b6115538686866117f9565b9150600015156007600084815260200190815260200160002060009054906101000a900460ff1615151415156115f1576040517f08c379a00000000000000000000000000000000000000000000000000000000081526004018080602001828103825260148152602001807f5374617220616c7265616479206578697374732100000000000000000000000081525060200191505060405180910390fd5b6115fb33846120a8565b60a0604051908101604052808981526020018881526020016116526040805190810160405280600381526020017f72615f00000000000000000000000000000000000000000000000000000000008152508961214e565b81526020016116966040805190810160405280600481526020017f6465635f000000000000000000000000000000000000000000000000000000008152508861214e565b81526020016116da6040805190810160405280600481526020017f6d61675f000000000000000000000000000000000000000000000000000000008152508761214e565b81525090508060056000858152602001908152602001600020600082015181600001908051906020019061170f9291906125c7565b50602082015181600101908051906020019061172c9291906125c7565b5060408201518160020190805190602001906117499291906125c7565b5060608201518160030190805190602001906117669291906125c7565b5060808201518160040190805190602001906117839291906125c7565b5090505060016007600084815260200190815260200160002060006101000a81548160ff0219169083151502179055505050505050505050565b6117c8848484610fc0565b6117d48484848461221a565b15156117df57600080fd5b50505050565b60006117f1838361243c565b905092915050565b6000606080606060006118416040805190810160405280600381526020017f72615f00000000000000000000000000000000000000000000000000000000008152508961214e565b93506118826040805190810160405280600481526020017f6465635f000000000000000000000000000000000000000000000000000000008152508861214e565b92506118c36040805190810160405280600481526020017f6d61675f000000000000000000000000000000000000000000000000000000008152508761214e565b91508383836040516020018084805190602001908083835b60208310151561190057805182526020820191506020810190506020830392506118db565b6001836020036101000a03801982511681845116808217855250505050505090500183805190602001908083835b602083101515611953578051825260208201915060208101905060208303925061192e565b6001836020036101000a03801982511681845116808217855250505050505090500182805190602001908083835b6020831015156119a65780518252602082019150602081019050602083039250611981565b6001836020036101000a03801982511681845116808217855250505050505090500193505050506040516020818303038152906040526040518082805190602001908083835b602083101515611a1157805182526020820191506020810190506020830392506119ec565b6001836020036101000a0380198251168184511680821785525050505050509050019150506040518091039020600190049050809450505050509392505050565b6000611a5d826124d0565b1515611a6857600080fd5b6002600083815260200190815260200160002060009054906101000a900473ffffffffffffffffffffffffffffffffffffffff169050919050565b6000611aae8261135f565b90508073ffffffffffffffffffffffffffffffffffffffff168373ffffffffffffffffffffffffffffffffffffffff1614151515611aeb57600080fd5b8073ffffffffffffffffffffffffffffffffffffffff163373ffffffffffffffffffffffffffffffffffffffff161480611b2b5750611b2a81336117e5565b5b1515611b3657600080fd5b826002600084815260200190815260200160002060006101000a81548173ffffffffffffffffffffffffffffffffffffffff021916908373ffffffffffffffffffffffffffffffffffffffff160217905550818373ffffffffffffffffffffffffffffffffffffffff168273ffffffffffffffffffffffffffffffffffffffff167f8c5be1e5ebec7d5bd14f71427d1e84f3dd0314c0f7b2291e5b200ac8c7c3b92560405160405180910390a4505050565b600080611bf48361135f565b90508073ffffffffffffffffffffffffffffffffffffffff168473ffffffffffffffffffffffffffffffffffffffff161480611c6357508373ffffffffffffffffffffffffffffffffffffffff16611c4b84610bfb565b73ffffffffffffffffffffffffffffffffffffffff16145b80611c745750611c7381856117e5565b5b91505092915050565b8173ffffffffffffffffffffffffffffffffffffffff16611c9d8261135f565b73ffffffffffffffffffffffffffffffffffffffff16141515611cbf57600080fd5b600073ffffffffffffffffffffffffffffffffffffffff166002600083815260200190815260200160002060009054906101000a900473ffffffffffffffffffffffffffffffffffffffff1673ffffffffffffffffffffffffffffffffffffffff16141515611d7c5760006002600083815260200190815260200160002060006101000a81548173ffffffffffffffffffffffffffffffffffffffff021916908373ffffffffffffffffffffffffffffffffffffffff1602179055505b5050565b8173ffffffffffffffffffffffffffffffffffffffff16611da08261135f565b73ffffffffffffffffffffffffffffffffffffffff16141515611dc257600080fd5b611e156001600360008573ffffffffffffffffffffffffffffffffffffffff1673ffffffffffffffffffffffffffffffffffffffff1681526020019081526020016000205461254290919063ffffffff16565b600360008473ffffffffffffffffffffffffffffffffffffffff1673ffffffffffffffffffffffffffffffffffffffff1681526020019081526020016000208190555060006001600083815260200190815260200160002060006101000a81548173ffffffffffffffffffffffffffffffffffffffff021916908373ffffffffffffffffffffffffffffffffffffffff1602179055505050565b600073ffffffffffffffffffffffffffffffffffffffff166001600083815260200190815260200160002060009054906101000a900473ffffffffffffffffffffffffffffffffffffffff1673ffffffffffffffffffffffffffffffffffffffff16141515611f1d57600080fd5b816001600083815260200190815260200160002060006101000a81548173ffffffffffffffffffffffffffffffffffffffff021916908373ffffffffffffffffffffffffffffffffffffffff160217905550611fc26001600360008573ffffffffffffffffffffffffffffffffffffffff1673ffffffffffffffffffffffffffffffffffffffff1681526020019081526020016000205461256390919063ffffffff16565b600360008473ffffffffffffffffffffffffffffffffffffffff1673ffffffffffffffffffffffffffffffffffffffff168152602001908152602001600020819055505050565b61202583838360206040519081016040528060008152506117bd565b505050565b6000806001600084815260200190815260200160002060009054906101000a900473ffffffffffffffffffffffffffffffffffffffff169050600073ffffffffffffffffffffffffffffffffffffffff168173ffffffffffffffffffffffffffffffffffffffff161415151561209f57600080fd5b80915050919050565b600073ffffffffffffffffffffffffffffffffffffffff168273ffffffffffffffffffffffffffffffffffffffff16141515156120e457600080fd5b6120ee8282611eaf565b808273ffffffffffffffffffffffffffffffffffffffff16600073ffffffffffffffffffffffffffffffffffffffff167fddf252ad1be2c89b69c2b068fc378daa952ba7f163c4a11628f55a4df523b3ef60405160405180910390a45050565b606082826040516020018083805190602001908083835b60208310151561218a5780518252602082019150602081019050602083039250612165565b6001836020036101000a03801982511681845116808217855250505050505090500182805190602001908083835b6020831015156121dd57805182526020820191506020810190506020830392506121b8565b6001836020036101000a03801982511681845116808217855250505050505090500192505050604051602081830303815290604052905092915050565b60008061223c8573ffffffffffffffffffffffffffffffffffffffff16612584565b151561224b5760019150612433565b8473ffffffffffffffffffffffffffffffffffffffff1663150b7a02338887876040518563ffffffff167c0100000000000000000000000000000000000000000000000000000000028152600401808573ffffffffffffffffffffffffffffffffffffffff1673ffffffffffffffffffffffffffffffffffffffff1681526020018473ffffffffffffffffffffffffffffffffffffffff1673ffffffffffffffffffffffffffffffffffffffff16815260200183815260200180602001828103825283818151815260200191508051906020019080838360005b83811015612340578082015181840152602081019050612325565b50505050905090810190601f16801561236d5780820380516001836020036101000a031916815260200191505b5095505050505050602060405180830381600087803b15801561238f57600080fd5b505af11580156123a3573d6000803e3d6000fd5b505050506040513d60208110156123b957600080fd5b8101908080519060200190929190505050905063150b7a027c0100000000000000000000000000000000000000000000000000000000027bffffffffffffffffffffffffffffffffffffffffffffffffffffffff1916817bffffffffffffffffffffffffffffffffffffffffffffffffffffffff19161491505b50949350505050565b6000600460008473ffffffffffffffffffffffffffffffffffffffff1673ffffffffffffffffffffffffffffffffffffffff16815260200190815260200160002060008373ffffffffffffffffffffffffffffffffffffffff1673ffffffffffffffffffffffffffffffffffffffff16815260200190815260200160002060009054906101000a900460ff16905092915050565b6000806001600084815260200190815260200160002060009054906101000a900473ffffffffffffffffffffffffffffffffffffffff169050600073ffffffffffffffffffffffffffffffffffffffff168173ffffffffffffffffffffffffffffffffffffffff161415915050919050565b60008083831115151561255457600080fd5b82840390508091505092915050565b600080828401905083811015151561257a57600080fd5b8091505092915050565b600080823b905060008111915050919050565b60a06040519081016040528060608152602001606081526020016060815260200160608152602001606081525090565b828054600181600116156101000203166002900490600052602060002090601f016020900481019282601f1061260857805160ff1916838001178555612636565b82800160010185558215612636579182015b8281111561263557825182559160200191906001019061261a565b5b5090506126439190612647565b5090565b61266991905b8082111561266557600081600090555060010161264d565b5090565b905600a165627a7a7230582052e9e399b073d85b0b4c05c263cc00ab70fe64eb0a808d5b331ada7a0b610b3d0029",
  "source": "pragma solidity ^0.4.23;\n\nimport \"openzeppelin-solidity/contracts/token/ERC721/ERC721.sol\";\n\ncontract StarNotary is ERC721 {\n    struct Star {\n        string name;\n        string story;\n        string cent;\n        string dec;\n        string mag;\n    }\n\n    mapping(uint256 => Star) private _tokenIdToStarInfo;\n    mapping(uint256 => uint256) private starsToPrice;\n    mapping(uint256 => bool) starFingerprints;\n\n    function createStar(\n        string _name,\n        string _story,\n        string _cent,\n        string _dec,\n        string _mag,\n        uint256 _tokenId\n    ) public {\n        uint256 starFingerprint = getStarFingerprint(_cent, _dec, _mag);\n        require(\n            starFingerprints[starFingerprint] == false,\n            \"Star already exists!\"\n        );\n        _mint(msg.sender, _tokenId);\n\n        Star memory newStar = Star(\n            _name,\n            _story,\n            string(concatenate(\"ra_\", _cent)),\n            string(concatenate(\"dec_\", _dec)),\n            string(concatenate(\"mag_\", _mag))\n        );\n\n        _tokenIdToStarInfo[_tokenId] = newStar;\n\n        starFingerprints[starFingerprint] = true;\n    }\n\n    //Would be more efficient to calculate fingerprint and pass it here but proj requires to pass the coords\n    function checkIfStarExist(\n        string _cent,\n        string _dec,\n        string _mag\n    ) public view returns (bool) {\n        uint256 starFingerprint = getStarFingerprint(_cent, _dec, _mag);\n        return starFingerprints[starFingerprint];\n    }\n\n    function getStarFingerprint(\n        string _cent,\n        string _dec,\n        string _mag\n    ) private pure returns (uint256) {\n        bytes memory encodedCent = concatenate(\"ra_\", _cent);\n        bytes memory encodedDec = concatenate(\"dec_\", _dec);\n        bytes memory encodedMag = concatenate(\"mag_\", _mag);\n        uint256 starFingerprint = uint256(\n            keccak256(abi.encodePacked(encodedCent, encodedDec, encodedMag))\n        );\n        return starFingerprint;\n    }\n\n    function concatenate(string prefix, string suffix)\n        private\n        pure\n        returns (bytes)\n    {\n        return abi.encodePacked(prefix, suffix);\n    }\n\n    function putStarUpForSale(uint256 _tokenId, uint256 _price) public {\n        require(this.ownerOf(_tokenId) == msg.sender);\n        starsToPrice[_tokenId] = _price;\n    }\n\n    function buyStar(uint256 _tokenId) public payable {\n        require(starsToPrice[_tokenId] > 0);\n\n        uint256 starCost = starsToPrice[_tokenId];\n        address starOwner = this.ownerOf(_tokenId);\n        require(msg.value >= starCost);\n\n        _removeTokenFrom(starOwner, _tokenId);\n        _addTokenTo(msg.sender, _tokenId);\n\n        starOwner.transfer(starCost);\n\n        if (msg.value > starCost) {\n            msg.sender.transfer(msg.value - starCost);\n        }\n\n        starsToPrice[_tokenId] = 0;\n    }\n\n    function mint(uint256 _tokenId) public {\n        _mint(msg.sender, _tokenId);\n    }\n\n    function ownerOf(uint256 _tokenId) public view returns (address) {\n        return ERC721.ownerOf(_tokenId);\n    }\n\n    function approve(address _to, uint256 _tokenId) public {\n        ERC721.approve(_to, _tokenId);\n    }\n\n    function getApproved(uint256 _tokenId) public view returns (address) {\n        return ERC721.getApproved(_tokenId);\n    }\n\n    function safeTransferFrom(\n        address from,\n        address _to,\n        uint256 _tokenId\n    ) public {\n        ERC721.safeTransferFrom(from, _to, _tokenId);\n    }\n\n    function SetApprovalForAll(address to, bool approved) public {\n        ERC721.setApprovalForAll(to, approved);\n    }\n\n    function isApprovedForAll(address owner, address operator)\n        public\n        view\n        returns (bool)\n    {\n        return ERC721.isApprovedForAll(owner, operator);\n    }\n\n    function starsForSale(uint256 _token) public view returns (uint256) {\n        return starsToPrice[_token];\n    }\n\n    function tokenIdToStarInfo(uint256 _token)\n        public\n        view\n        returns (\n            string,\n            string,\n            string,\n            string,\n            string\n        )\n    {\n        Star memory star = _tokenIdToStarInfo[_token];\n        return (star.name, star.story, star.cent, star.dec, star.mag);\n    }\n}\n",
  "sourcePath": "/Users/josephdeangeloi/Documents/Github/Decentralized-Star-Notary/contracts/StarNotary.sol",
  "compiler": {
    "name": "solc",
    "version": "0.4.26+commit.4563c3fc.Emscripten.clang"
  },
  "schemaVersion": "3.0.1",
  "updatedAt": "2022-03-24T20:56:29.218Z",
  "devdoc": {
    "methods": {
      "balanceOf(address)": {
        "details": "Gets the balance of the specified address",
        "params": {
          "owner": "address to query the balance of"
        },
        "return": "uint256 representing the amount owned by the passed address"
      },
      "safeTransferFrom(address,address,uint256,bytes)": {
        "details": "Safely transfers the ownership of a given token ID to another address If the target address is a contract, it must implement `onERC721Received`, which is called upon a safe transfer, and return the magic value `bytes4(keccak256(\"onERC721Received(address,address,uint256,bytes)\"))`; otherwise, the transfer is reverted. Requires the msg sender to be the owner, approved, or operator",
        "params": {
          "_data": "bytes data to send along with a safe transfer check",
          "from": "current owner of the token",
          "to": "address to receive the ownership of the given token ID",
          "tokenId": "uint256 ID of the token to be transferred"
        }
      },
      "setApprovalForAll(address,bool)": {
        "details": "Sets or unsets the approval of a given operator An operator is allowed to transfer all tokens of the sender on their behalf",
        "params": {
          "approved": "representing the status of the approval to be set",
          "to": "operator address to set the approval"
        }
      },
      "supportsInterface(bytes4)": {
        "details": "implement supportsInterface(bytes4) using a lookup table"
      },
      "transferFrom(address,address,uint256)": {
        "details": "Transfers the ownership of a given token ID to another address Usage of this method is discouraged, use `safeTransferFrom` whenever possible Requires the msg sender to be the owner, approved, or operator",
        "params": {
          "from": "current owner of the token",
          "to": "address to receive the ownership of the given token ID",
          "tokenId": "uint256 ID of the token to be transferred"
        }
      }
    }
  },
  "userdoc": {
    "methods": {}
  }
}